:1017B10090FFFD12041D12033C85088385098212E6
:1017C100031C85088385098212033CB2B07E007F29
:0617D1000C12148780F5E4
:1017D70090FFFD12041D12033C85088385098212C0
:1017E700031C85088385098212033CB2B17E007F02
:0617F7003212148780F598
:10156B001208AB12185190FFFF12041DE4F07B011F
:10157B007A00799D90FFFD12041D12033C7B007ACB
:10158B0000790090FFFD12041D12033C7BFF7A17BC
:10159B0079B1120D8B90FFFF12041D7401F0FB7AD1
:1015AB000079DE90FFFD12041D12033C7B007A00D4
:1015BB00790090FFFD12041D12033C7BFF7A177913
:0715CB00D7120D8B02163848
:100EA9000102040810204080000001000200010036
:100EB900030001000200010004000100020001001A
:100EC9000300010002000100050001000200010009
:100ED90003000100020001000400010002000100FA
:100EE90003000100020001000600010002000100E8
:100EF90003000100020001000400010002000100DA
:100F090003000100020001000500010002000100C8
:100F190003000100020001000400010002000100B9
:100F290003000100020001000700010002000100A6
:100F39000300010002000100040001000200010099
:100F49000300010002000100050001000200010088
:100F59000300010002000100040001000200010079
:100F69000300010002000100060001000200010067
:100F79000300010002000100040001000200010059
:100F89000300010002000100050001000200010048
:100F99000300010002000100040001000200010039
:080FA900030001000200010039
:0608AB0090FFF512041D90
:1008B100120003E47816F6780CF67832F6780BF627
:1008C100782E1202C000000000782A1202C0000037
:1008D1000000E4780AF67B017A00799B850883851C
:1008E1000982A3A312033C850883850982E4F0A34E
:1008F100F0850883850982E0FEA3E0C39401EE94AC
:10090100005021850883850982A3A3E475F00112B3
:100911000325E412005485088385098275F00112CC
:10092100008880CDE47833F608F6FBFAF9781712DF
:1009310003137813120313780D12031385088385AB
:100941000982E4F0A3F0850883850982E0FEA3E033
:10095100FFC39405EE940050207B007A007900EFEC
:1009610075F003A4241AF8120313850883850982FC
:10097100E475F00112008880CD7B017A0079009046
:10098100000512044112033C7B017A0079149000A6
:100991000812044112033C850883850982E4F0A30F
:1009A100F0850883850982E0FEA3E0C39403EE94F9
:1009B10000504990000812044112031CC003C002F8
:1009C100C00190000512044112031C9000031203A0
:1009D100C4900005120441A3E475F014120088903C
:1009E1000008120441A3E475F014120088850883FD
:1009F100850982E475F00112008880A57B007A00E8
:100A01007900C003C002C001900005120441120325
:100A11001C9000031203C47B017A00790078101244
:100A210003137A00795090005812033CE4120054E9
:100A31001BFAF9C003C002C00190005812031C90B8
:100A410000041203C490FFFF12041D7404F07B0123
:100A51007A00795B90FFFD12041D12033C7B007A42
:100A610000790090FFFD12041D12033C7BFF7A17F1
:080A71007976120D8B120004CE
:060A790090000B02041DB9
:0E186200C2AF7816E6C394FF500106D2AF2243
:1014FB00C2AF7816E6D394004001167816E6705DFD
:10150B00780CE67058780AE6900EB1937829F6E6D7
:10151B00FF249BF582E43400F583E0900EB193FE3B
:10152B00EF33333354F8FFEE2FFF7834F618E66FB2
:10153B00602B08E675F003A4241AF812030A781737
:10154B00120313782A120290EF2401FFE43EFEE40B
:10155B003DFDE43CFC782A1202A8121870D2AF228F
:0616380090FFFE12041DEC
:10163E00780BE6705118E6900EB1938508838509F4
:10164E0082F0E0FF249BF582E43400F583E0900EF7
:10165E00B193850883850982A3F0EF33333354F8B1
:10166E00FF850883850982A3E02F7834F618F67576
:10167E00F003A4241AF812030A781712031378132E
:06168E0012031312169A6C
:0616940090000202041D9B
:0611790090FFFD12041DB1
:10117F00120006780D12030A85088385098212036F
:10118F003C85088385098212031C90000F120027EB
:10119F006404700302123AC2AF90000C12009E4515
:1011AF00F0606B85088385098212031C90000C7414
:1011BF00FFF5F01200D645F0705490000E12002784
:1011CF0020E338900013120027780A46F69000119A
:1011DF00120027249BF582E43400F583C083C0827C
:1011EF00E0FF85088385098212031C90001212000C
:1011FF0027FEEF4ED082D083F080138508838509B8
:10120F008212031C90000CE475F001120123850873
:10121F008385098212031C900003120394850883AF
:0B122F0085098212033CD2AF0211902F
:06123A0090000302041DF8
:0F0C210090FFFD12041D12033C90FFF812041DFA
:100C300090000812044112031C900001120027903A
:100C40000EB193FF900004120441EFF090000412E3
:100C50000441E0FF900EA993FE900006120441EEBD
:100C6000F0E92407F9E43AFA7E00E92FF9EE3AFABE
:100C700012000EFF900EB193FE900003120441EE9D
:100C8000F0900003120441E0FE900EA993FD900045
:100C900005120441EDF0900004120441E0FD3333ED
:100CA0003354F82EFE900007120441EEF090000538
:100CB000120441E0FEF45F1200547020900008120C
:100CC000044112031CE92401F9E43AFA12000EFF70
:100CD000900006120441E0F45F12005490000712E5
:100CE0000441E0FF75F003A4241AF812030A8508F2
:100CF0008385098212033C85088385098212031CBF
:100D000090000CE4F5F01201237B007A007900C01A
:100D100003C002C00185088385098212031C90006C
:100D2000091203C490000B12044112031C90000B23
:100D300012044112033C85088385098212031CE9D1
:100D4000240EF9E43AFA12000EFD90000E1204414E
:100D5000E0F45D12005485088385098212031C901B
:100D6000000E120027701E900006120441E0780A5F
:100D700046F6900004120441E0249BF582E434001E
:050D8000F583E04EF0D8
:060D850090000F02041DA6
:1010A30090FFFD12041D12033C85088385098212FB
:1010B300031CC003C002C001781312030A90000985
:1010C3001203C4781312030A900011120027249B01
:1010D300F582E43400F583C083C082E0FF78131205
:1010E300030A900012120027F4FEEF5ED082D08331
:1010F300F0700B900013120027F4780A56F6781359
:1011030012030A900011120027FF7E0085088385D1
:10111300098212031CE92407F9E43AFAE92FF9EEEC
:101123003AFAC003C002C00112000EFF7813120383
:101133000A9000121200274FD001D002D0031200F0
:101143005485088385098212031CE92401F9E43AD2
:10115300FAC003C002C00112000EFF781312030A83
:101163009000131200274FD001D002D00312005475
:0611730090000302041DC0
:1012400090FFFD12041D12033C781312030A900054
:1012500011120027FF7E0085088385098212031C76
:10126000E92407F9E43AFAE92FF9EE3AFAC003C0A3
:1012700002C00112000EFF781312030A900012122E
:101280000027F45FD001D002D003120054703085E3
:10129000088385098212031CE92401F9E43AFAC0A3
:1012A00003C002C00112000EFF781312030A90005F
:1012B00013120027F45FD001D002D003120054783B
:1012C0001312030A90000EE41200667B007A007984
:1012D00000C003C002C001781312030A9000091273
:0812E00003C490000302041D89
:0F16EC0090FFFD12041D12033C90FFFD12041D20
:1016FB0090000312044112031C900001E4120066D7
:10170B00E92407F9E43AFA85088385098212033C38
:10171B00850883850982E475F001120325E4120024
:01172B005469
:06172C0090000602041DFE
:0614110090FFFF12041D14
:10141700C2AF7816E67061780CE6705C780AE690E1
:101427000EB193850883850982F0E0FF249BF5823E
:10143700E43400F583E0900EB193FEEF3333335479
:10144700F8FFEE2FFF7834F618E66F602B08E67585
:10145700F003A4241AF812030A7817120313782A40
:10146700120290EF2401FFE43EFEE43DFDE43CFC64
:0A147700782A1202A81215D2D2AF93
:0614810090000102041DB1
:1017760090FFFD12041D12033C8508838509821221
:10178600031C85088385098212033CC2AF782E129A
:101796000290EF2401FFE43EFEE43DFDE43CFC78CC
:0B17A6002E1202A8D2AF12000780E054
:1004990090FFFD12041D12033C90FFFF12041DEF93
:0704A900F090FFFD12041D9D
:1004B000C2AF781012030A85088385098212033CB3
:1004C00085088385098212031CE94A4B70030206E2
:1004D000C585088385098212031C900003120394CA
:1004E0007810120313D2AF90000412044112031CBF
:1004F000C003C002C00185088385098212031C1253
:100500000345900003120441E0FF850883850982BA
:1005100012031C90000FEF12006690000EE4120010
:100520006690000CE4F5F0120123900010120441D3
:1005300012031C90001012044112033C90000C1294
:10054000044112029C90000C1204411202B490006B
:100550000712044112031C90000712044112033CCD
:10056000900013120441E0FEA3E0FF900013120478
:1005700041EEF0A3EFF090000A120441E0FEA3E088
:10058000FF90000A120441EEF0A3EFF09000031276
:100590000441E0FF131313541FFE8508838509826D
:1005A00012031C900011EE12006690001112002739
:1005B000900EA993900013120066EF54079000105C
:1005C000120066900010120027900EA9939000125E
:1005D0001200667B007A007900C003C002C001856A
:1005E000088385098212031C9000091203C4850840
:1005F0008385098212031C12181E850883850982CF
:1006000012031C1217FDC2AF8508838509821203ED
:100610001C900003120441E075F003A4241AF812A0
:100620000313780D12030AC003C002C001850883BA
:1006300085098212031C9000031203C47B007A0018
:100640007900C003C002C0018508838509821203B6
:100650001C9000061203C4780D12030AE94A4B608D
:100660001A85088385098212031CC003C002C001D9
:10067000780D12030A9000061203C48508838509C9
:100680008212031C780D12031390001312002778B6
:100690000A46F6900011120027249BF582E43400EC
:1006A000F583C083C082E0FF850883850982120339
:1006B0001C900012120027FEEF4ED082D083F0D2A1
:0906C000AF7F008004D2AF7F4639
:0606C90090001502041D63
:0F06CF0090FFFD12041D12033C90FFFD12041D4D
:1006DE0090000612044112031C90000612044112EF
:1006EE00033C90000C120441E0FEA3E0FF90000CCE
:1006FE00120441EEF0A3EFF0900009120441120330
:10070E001C85088385098212033C8508838509822E
:10071E00E475F001120325740F12005490000312B9
:10072E00044112031CAF01850883850982E475F02C
:10073E0001120325EF12005490000312044112031C
:10074E001CEAFF850883850982E475F001120325F2
:10075E00EF120054850883850982E475F0011203B7
:10076E0025740A120054850883850982E475F00108
:10077E00120325740B120054850883850982E475D3
:10078E00F001120325E41200548508838509827551
:10079E00F001120325E41200548508838509827541
:1007AE00F001120325E41200548508838509827531
:1007BE00F001120325E412005490000612044112B7
:1007CE00031CAF01850883850982E475F0011203CD
:1007DE0025EF12005490000612044112031CEAFF8A
:1007EE00850883850982E475F001120325EF120056
:1007FE0054850883850982E475F00112032574017E
:10080E00120054850883850982E475F001120325D0
:10081E007404120054850883850982E475F0011270
:10082E0003257405120054850883850982E475F04A
:10083E00011203257406120054850883850982E48B
:10084E0075F001120325740712005490000912046A
:10085E004112031CE92440F9E43AFF850883850917
:10086E0082E475F001120325EF1200549000091274
:10087E00044112031CE92440F9E43AAF01850883D0
:10088E00850982E475F001120325EF1200549000E1
:07089E000912044112031CC2
:0608A50090000E02041D8C
:0100030022DA
:0100040022D9
:1017FD0090FFFD12041D12033C850883850982129A
:10180D00031C85088385098212033C9000030204A2
:01181D001DAD
:0100050022D8
:10181E0090FFFD12041D12033C8508838509821278
:10182E00031C85088385098212033C900003020481
:01183E001D8C
:0100060022D7
:0100070022D6
:09187A00758CB8E4F58AD28C22C9
:03000B00021732A7
:10173200C0E0C0F0C083C082C0D075D000C000C07D
:1017420001C002C003C004C005C006C0071218626F
:1017520012187A1211791214FBD007D006D005D0D4
:1017620004D003D002D001D000D0D0D082D083D018
:04177200F0D0E032A1
:101851005389F0438901758CB8E4F58AD2A9D28CF9
:011861002264
:1012E80090FFFE12041DEEF0A3EFF090FFFD120434
:0112F8001DD8
:1012F9007816E6D3940040087B007A00790080755F
:10130900C2AF90005812031C850883850982120315
:101319003C90005812031CE94A4B60129000581285
:10132900031C90000412039490005812033CD2AF9E
:1013390085088385098212031CE94A4B602E8508BA
:101349008385098212031C7403120054900003124E
:101359000441E0FEA3E0FF85088385098212031C8E
:10136900900002EE8FF01201231216EC8508838596
:05137900098212031CB3
:06137E0090000502041DB1
:100FB10090FFFE12041DECF0A3EDF090FFFD120472
:100FC1001D12033C7816E6D39400400E90000512E2
:100FD100044112031C740202109AC2AF8508838572
:100FE100098212031C90000212009ED39400E5F0C6
:100FF1009400401990000274FFF5F01200D6D2AFB0
:1010010090000512044112031CE402109A78131295
:10101100030AE9240EF9E43AFA12000E440112001F
:1010210054900003120441E0FEA3E0FF7813120381
:101031000A90000CEE8FF012012385088385098246
:1010410012031C1210A3D2AF121411C2AF781312E3
:10105100030A90000E12002730E01B8508838509E2
:101061008212031C121240D2AF90000512044112E9
:10107100031C740A80237B007A007900C003C0023C
:10108100C001781312030A9000091203C4D2AF9071
:10109100000512044112031CE412005490000802DE
:0210A100041D2C
:1013840090FFFD12041D12033CC2AF85088385093A
:101394008212031C900001120027602D90FFFF129F
:1013A400041D7401F07B007A00790090FFFD1204A3
:1013B4001D12033C90000412044112031C120C2160
:1013C400D2AF1214117F00803E85088385098212F2
:1013D400031C90000212009EFFAEF0E4FCFD7BFFB4
:1013E4007AFFF9F8D312027A4019850883850982B5
:1013F40012031C900002E475F0011200D6D2AF7FF4
:0D140400008004D2AF7F3290000302041D6F
:0F0D8B0090FFFD12041D12033C90FFFC12041D8B
:100D9A00C2AF90000D120441E0FF75F003A4241ABB
:100DAA00F812030AE94A4B6003020E9FFBFA790123
:100DBA00EF75F003A4241AF8120313D2AF90FFFEC2
:100DCA0012041DE4F0A3F090000C12044112031C5B
:100DDA0090FFFD12041D12033C90000C12044112F4
:100DEA00031C90FFFD12041D12033C90000C120418
:100DFA004112031C1206CF85088385098212033C1F
:100E0A0090FFFE12041DE4F0A3F0FBFAF990FFFD37
:100E1A0012041D12033C90FFFC12041D1202D90099
:100E2A0000000090FFFE12041DE4F0A3F0FBFAF9A3
:100E3A0090FFFD12041D12033C90000E1204411291
:100E4A00031C90001B120441E0FF12049990000356
:100E5A00120441EFF0900003120441E07012C2AF95
:100E6A00783206D2AF780BE6B40120121411801B37
:100E7A00C2AF7B007A00790090000D120441E07540
:100E8A00F003A4241AF8120313D2AF900003120439
:090E9A0041E0FF8004D2AF7F2883
:060EA30090000E02041D88
:1014870090FFFE12041DEEF0A3EFF0850883850997
:1014970082E0FEA3E0FFD39400EE94004050C2AF79
:1014A700781312030A900011120027249BF582E497
:1014B7003400F583C083C082E0FD781312030A90DD
:1014C7000012120027F4FCED5CD082D083F0700B81
:1014D700900013120027F4780A56F6781312030ABD
:1014E70090000CEE8FF0120123D2AF12141190006E
:0414F7000202041DCC
:100A7F0090FFFF12041DEBF090FFFF12041DEDF02D
:0E0A8F0090FFFF12041DEFF090FFFA12041DFD
:100A9D00900006120441E0D39400502D90000712EF
:100AAD000441E0D394005021900008120441E0D39A
:100ABD0094005015900009120441E0FEA3E0D39478
:100ACD0000EE94005003020C19900007120441E04F
:100ADD00FED3943B40057F51020C1B90000812047D
:100AED0041E0D3943B40057F52020C1B900009124C
:100AFD000441E0FCA3E0D394E7EC940340057F535D
:100B0D00020C1BEEFF7E007C007D3C12044EC004E7
:100B1D00C005C006C007900006120441E0FF7E002C
:100B2D007C0E7D1012044ED003D002D001D00012E5
:100B3D000150A804A905AA06AB07900008120441AC
:100B4D00E0FFE4FCFDFE120150E47B32FAF9F812ED
:100B5D00015DC004C005C006C00790000912044124
:100B6D00E0FEA3E0FFEF240AFFE43EFEE433FDE4E4
:100B7D0033FCE47B32FAF9F812015DE47BE87A0389
:100B8D00F9F81201E8D003D002D001D000120150C3
:100B9D008508838509821202B4E4FBFA7901F88590
:100BAD00088385098212029C1201E8900004120448
:100BBD0041EEF0A3EFF0850883850982C083C082E2
:100BCD0012029CE4FDFCD082D0831202B48508830E
:100BDD0085098212029C121487900004120441E0D0
:100BED00FEA3E0D39400EE9400401D7E807F0012A2
:100BFD0014877E807F0012148790000412044174C4
:0E0C0D00FFF5F012008880D17F0080027F5436
:060C1B0090000B02041D15
:0300000002183FA4
:10183F0078FEE4F6D8FD7508047509007581340249
:02184F00156B17
:10169A001200057813088683088682A3E0F8A3E07F
:1016AA00F988838982E0FD7835A308E0F6DDFA88B7
:1016BA0081A3E0F508A3E0F509780B7601D0E0FFF5
:1016CA00D0E0FED0E0FDD0E0FCD0E0FBD0E0FAD0E4
:1016DA00E0F9D0E0F8D0D0D082D083D0F0D0E0D2F8
:0216EA00AF321D
:1015D200C0E0C0F0C083C082C0D0E8C0E0E9C0E093
:1015E200EAC0E0EBC0E0ECC0E0EDC0E0EEC0E0EF4E
:1015F200C0E0E581C39435FD7813088683088682AE
:10160200A3E0F8A3E0F988838982EDF07835A30896
:10161200E6F0DDFAA3E508F0A3E509F0120005788B
:10162200137917E7F60809E7F60809E7F678337938
:0616320034E7F602169DEC
:0A187000E581C39404F5810215F42C
:10000E00BB010689828A83E0225002E722BBFE02F0
:09001E00E32289828A83E4932223
:10002700BB010CE58229F582E5833AF583E022508E
:1000370006E92582F8E622BBFE06E92582F8E222D8
:0D004700E58229F582E5833AF583E49322F2
:10005400BB010689828A83F0225002F722BBFE018B
:02006400F32285
:10006600F8BB010DE58229F582E5833AF583E8F0D0
:10007600225006E92582C8F622BBFE05E92582C87C
:02008600F22264
:10008800C5F0F8A3E028F0C5F0F8E5821582700203
:060098001583E038F022A0
:10009E00BB0110E58229F582E5833AF583E0F5F0A0
:1000AE00A3E0225009E92582F886F008E622BBFE7D
:1000BE000AE92582F8E2F5F008E222E5832AF583C3
:0800CE00E993F5F0A3E9932288
:1000D600BB010DC58229C582C5833AC58302008846
:1000E6005011C58229F808E5F026F618F5F0E582E4
:1000F60036F622BBFE11C58229F808E225F0F5F096
:10010600F218E23582F222F8E58229F582E5832AA1
:0D011600F58374019325F0F5F0E493382291
:10012300F8BB0111E58229F582E5833AF583E8F00E
:10013300E5F0A3F0225009E92582C8F608A6F022CB
:0D014300BBFE09E92582C8F2E5F008F222B2
:0D015000EF2BFFEE3AFEED39FDEC38FC22FE
:10015D00E88FF0A4CC8BF0A42CFCE98EF0A42CFC41
:10016D008AF0EDA42CFCEA8EF0A4CDA8F08BF0A4BF
:10017D002DCC3825F0FDE98FF0A42CCD35F0FCEB1E
:10018D008EF0A4FEA9F0EB8FF0A4CFC5F02ECD39E3
:0F019D00FEE43CFCEAA42DCE35F0FDE43CFC2250
:1001AC0075F008758200EF2FFFEE33FECD33CDCC0A
:1001BC0033CCC58233C5829BED9AEC99E58298408D
:1001CC000CF582EE9BFEED9AFDEC99FC0FD5F0D66A
:1001DC00E4CEFBE4CDFAE4CCF9A88222B800C1B994
:1001EC000059BA002DEC8BF084CFCECDFCE5F0CBD2
:1001FC00F97818EF2FFFEE33FEED33FDEC33FCEB0B
:10020C0033FB10D703994004EB99FB0FD8E5E4F9C5
:10021C00FA227818EF2FFFEE33FEED33FDEC33FCB2
:10022C00C933C910D7059BE99A4007EC9BFCE99AA6
:10023C00F90FD8E0E4C9FAE4CCFB2275F010EF2FEB
:10024C00FFEE33FEED33FDCC33CCC833C810D707EB
:10025C009BEC9AE899400AED9BFDEC9AFCE899F826
:0E026C000FD5F0DAE4CDFBE4CCFAE4C8F922B9
:10027A00EB9FF5F0EA9E42F0E99D42F0EC6480C8FB
:06028A0064809845F0229B
:0C029000E6FC08E6FD08E6FE08E6FF229A
:0C029C00E0FCA3E0FDA3E0FEA3E0FF22D5
:0C02A800ECF608EDF608EEF608EFF62282
:0C02B400ECF0A3EDF0A3EEF0A3EFF022BD
:1002C000D083D082E493F608740193F60874029305
:0902D000F608740393F67404733C
:1002D900A8828583F0D083D0821202F01202F01234
:1002E90002F01202F0E473E493A3C583C5F0C58359
:1002F900C8C582C8F0A3C583C5F0C583C8C582C86F
:0103090022D1
:09030A00E6FB08E6FA08E6F92218
:09031300EBF608EAF608E9F6220F
:09031C00E0FBA3E0FAA3E0F922E2
:10032500F8E0FBA3A3E0F925F0F0E5821582700261
:070335001583E0FA38F02205
:09033C00EBF0A3EAF0A3E9F022C2
:10034500BB011A89828A83D0F0D0E0F8D0E0F9D0D9
:10035500E0FAD0E0FBE8C0E0C0F002033C5016E94B
:10036500F8D083D082D0E0F9D0E0FAD0E0FBC082AB
:10037500C083020313BBFE16E9F8D083D082D0E018
:0F038500F9D0E0FAD0E0FBC082C08302048422EA
:10039400BB010DE58229F582E5833AF58302031C4E
:1003A4005007E92582F802030ABBFE07E92582F813
:1003B40002047BE58229F582E5833AF58302048D04
:1003C400BB0120E58229F582E5833AF583D0F0D09C
:1003D400E0F8D0E0F9D0E0FAD0E0FBE8C0E0C0F00B
:1003E40002033C5018E92582F8D083D082D0E0F98A
:1003F400D0E0FAD0E0FBC082C083020313BBFE1836
:10040400E92582F8D083D082D0E0F9D0E0FAD0E0B8
:09041400FBC082C08302048422B3
:10041D00E5092582F582E5083583F583B508048560
:10042D0082092210AF06858209F50822858209F519
:04043D0008D2AF2210
:0D044100E5092582F582E5083583F5832263
:10044E00EC8EF0A4CCC5F0CCCDF8EFA4CEC5F02D3B
:10045E00FDE43CFCE8A42EC8C5F03DFDE43CFCEFF9
:0D046E00A4FFE5F028FEE43DFDE43CFC2287
:09047B00E2FB08E2FA08E2F922B2
:09048400EBF208EAF208E9F222A9
:0C048D00E493FB740193FA740293F922CB
:00000001FF
